{
  "contractName": "Silk",
  "abi": [
    {
      "anonymous": false,
      "inputs": [
        {
          "indexed": true,
          "internalType": "address",
          "name": "_owner",
          "type": "address"
        },
        {
          "indexed": true,
          "internalType": "address",
          "name": "_spender",
          "type": "address"
        },
        {
          "indexed": false,
          "internalType": "uint256",
          "name": "_value",
          "type": "uint256"
        }
      ],
      "name": "Approval",
      "type": "event"
    },
    {
      "anonymous": false,
      "inputs": [
        {
          "indexed": false,
          "internalType": "address",
          "name": "_sender",
          "type": "address"
        },
        {
          "indexed": false,
          "internalType": "uint256",
          "name": "_amount",
          "type": "uint256"
        },
        {
          "indexed": false,
          "internalType": "uint256",
          "name": "_reward",
          "type": "uint256"
        }
      ],
      "name": "BurnSilk",
      "type": "event"
    },
    {
      "anonymous": false,
      "inputs": [
        {
          "indexed": true,
          "internalType": "address",
          "name": "_to",
          "type": "address"
        },
        {
          "indexed": false,
          "internalType": "uint256",
          "name": "_value",
          "type": "uint256"
        }
      ],
      "name": "Mint",
      "type": "event"
    },
    {
      "anonymous": false,
      "inputs": [
        {
          "indexed": true,
          "internalType": "address",
          "name": "_from",
          "type": "address"
        },
        {
          "indexed": true,
          "internalType": "address",
          "name": "_to",
          "type": "address"
        },
        {
          "indexed": false,
          "internalType": "uint256",
          "name": "_value",
          "type": "uint256"
        }
      ],
      "name": "Transfer",
      "type": "event"
    },
    {
      "inputs": [
        {
          "internalType": "address",
          "name": "",
          "type": "address"
        },
        {
          "internalType": "address",
          "name": "",
          "type": "address"
        }
      ],
      "name": "allowance",
      "outputs": [
        {
          "internalType": "uint256",
          "name": "",
          "type": "uint256"
        }
      ],
      "stateMutability": "view",
      "type": "function",
      "constant": true
    },
    {
      "inputs": [
        {
          "internalType": "address",
          "name": "",
          "type": "address"
        }
      ],
      "name": "balanceOf",
      "outputs": [
        {
          "internalType": "uint256",
          "name": "",
          "type": "uint256"
        }
      ],
      "stateMutability": "view",
      "type": "function",
      "constant": true
    },
    {
      "inputs": [],
      "name": "name",
      "outputs": [
        {
          "internalType": "string",
          "name": "",
          "type": "string"
        }
      ],
      "stateMutability": "view",
      "type": "function",
      "constant": true
    },
    {
      "inputs": [],
      "name": "standard",
      "outputs": [
        {
          "internalType": "string",
          "name": "",
          "type": "string"
        }
      ],
      "stateMutability": "view",
      "type": "function",
      "constant": true
    },
    {
      "inputs": [],
      "name": "symbol",
      "outputs": [
        {
          "internalType": "string",
          "name": "",
          "type": "string"
        }
      ],
      "stateMutability": "view",
      "type": "function",
      "constant": true
    },
    {
      "inputs": [],
      "name": "totalSupply",
      "outputs": [
        {
          "internalType": "uint256",
          "name": "",
          "type": "uint256"
        }
      ],
      "stateMutability": "view",
      "type": "function",
      "constant": true
    },
    {
      "inputs": [
        {
          "internalType": "address",
          "name": "_to",
          "type": "address"
        },
        {
          "internalType": "uint256",
          "name": "_value",
          "type": "uint256"
        }
      ],
      "name": "transfer",
      "outputs": [
        {
          "internalType": "bool",
          "name": "success",
          "type": "bool"
        }
      ],
      "stateMutability": "nonpayable",
      "type": "function"
    },
    {
      "inputs": [
        {
          "internalType": "address",
          "name": "_to",
          "type": "address"
        },
        {
          "internalType": "uint256",
          "name": "_value",
          "type": "uint256"
        }
      ],
      "name": "mint",
      "outputs": [
        {
          "internalType": "bool",
          "name": "success",
          "type": "bool"
        }
      ],
      "stateMutability": "nonpayable",
      "type": "function"
    },
    {
      "inputs": [
        {
          "internalType": "address",
          "name": "_spender",
          "type": "address"
        },
        {
          "internalType": "uint256",
          "name": "_value",
          "type": "uint256"
        }
      ],
      "name": "approve",
      "outputs": [
        {
          "internalType": "bool",
          "name": "success",
          "type": "bool"
        }
      ],
      "stateMutability": "nonpayable",
      "type": "function"
    },
    {
      "inputs": [
        {
          "internalType": "uint256",
          "name": "_value",
          "type": "uint256"
        },
        {
          "internalType": "address",
          "name": "_sender",
          "type": "address"
        }
      ],
      "name": "burn",
      "outputs": [
        {
          "internalType": "uint256",
          "name": "percentage",
          "type": "uint256"
        }
      ],
      "stateMutability": "nonpayable",
      "type": "function"
    },
    {
      "inputs": [],
      "name": "fallback",
      "outputs": [],
      "stateMutability": "payable",
      "type": "function",
      "payable": true
    }
  ],
  "bytecode": "0x6080604052600080556040518060400160405280600a81526020017f53696c6b20546f6b656e0000000000000000000000000000000000000000000081525060019080519060200190620000559291906200015b565b506040518060400160405280600481526020017f53494c4b0000000000000000000000000000000000000000000000000000000081525060029080519060200190620000a39291906200015b565b506040518060400160405280600f81526020017f53696c6b20546f6b656e2076312e30000000000000000000000000000000000081525060039080519060200190620000f19291906200015b565b507327b4a532dcfa500a9b27aa186f8bdf09a6af1f4e600560006101000a81548173ffffffffffffffffffffffffffffffffffffffff021916908373ffffffffffffffffffffffffffffffffffffffff1602179055503480156200015457600080fd5b5062000270565b82805462000169906200023a565b90600052602060002090601f0160209004810192826200018d5760008555620001d9565b82601f10620001a857805160ff1916838001178555620001d9565b82800160010185558215620001d9579182015b82811115620001d8578251825591602001919060010190620001bb565b5b509050620001e89190620001ec565b5090565b5b8082111562000207576000816000905550600101620001ed565b5090565b7f4e487b7100000000000000000000000000000000000000000000000000000000600052602260045260246000fd5b600060028204905060018216806200025357607f821691505b602082108114156200026a57620002696200020b565b5b50919050565b61111d80620002806000396000f3fe60806040526004361061009c5760003560e01c80635a3b7e42116100645780635a3b7e421461017b57806370a08231146101a657806395d89b41146101e3578063a9059cbb1461020e578063dd62ed3e1461024b578063fcd3533c146102885761009c565b806306fdde03146100a1578063095ea7b3146100cc57806318160ddd1461010957806340c10f1914610134578063552079dc14610171575b600080fd5b3480156100ad57600080fd5b506100b66102c5565b6040516100c39190610bc7565b60405180910390f35b3480156100d857600080fd5b506100f360048036038101906100ee9190610c82565b610353565b6040516101009190610cdd565b60405180910390f35b34801561011557600080fd5b5061011e610445565b60405161012b9190610d07565b60405180910390f35b34801561014057600080fd5b5061015b60048036038101906101569190610c82565b61044b565b6040516101689190610cdd565b60405180910390f35b6101796105f1565b005b34801561018757600080fd5b506101906105f3565b60405161019d9190610bc7565b60405180910390f35b3480156101b257600080fd5b506101cd60048036038101906101c89190610d22565b610681565b6040516101da9190610d07565b60405180910390f35b3480156101ef57600080fd5b506101f8610699565b6040516102059190610bc7565b60405180910390f35b34801561021a57600080fd5b5061023560048036038101906102309190610c82565b610727565b6040516102429190610cdd565b60405180910390f35b34801561025757600080fd5b50610272600480360381019061026d9190610d4f565b610890565b60405161027f9190610d07565b60405180910390f35b34801561029457600080fd5b506102af60048036038101906102aa9190610d8f565b6108b5565b6040516102bc9190610d07565b60405180910390f35b600180546102d290610dfe565b80601f01602080910402602001604051908101604052809291908181526020018280546102fe90610dfe565b801561034b5780601f106103205761010080835404028352916020019161034b565b820191906000526020600020905b81548152906001019060200180831161032e57829003601f168201915b505050505081565b600081600660003373ffffffffffffffffffffffffffffffffffffffff1673ffffffffffffffffffffffffffffffffffffffff16815260200190815260200160002060008573ffffffffffffffffffffffffffffffffffffffff1673ffffffffffffffffffffffffffffffffffffffff168152602001908152602001600020819055508273ffffffffffffffffffffffffffffffffffffffff163373ffffffffffffffffffffffffffffffffffffffff167f8c5be1e5ebec7d5bd14f71427d1e84f3dd0314c0f7b2291e5b200ac8c7c3b925846040516104339190610d07565b60405180910390a36001905092915050565b60005481565b6000600560009054906101000a900473ffffffffffffffffffffffffffffffffffffffff1673ffffffffffffffffffffffffffffffffffffffff163373ffffffffffffffffffffffffffffffffffffffff16146104a757600080fd5b600a826104b49190610e8e565b60046000600560009054906101000a900473ffffffffffffffffffffffffffffffffffffffff1673ffffffffffffffffffffffffffffffffffffffff1673ffffffffffffffffffffffffffffffffffffffff16815260200190815260200160002060008282546105249190610ebf565b9250508190555081600460008573ffffffffffffffffffffffffffffffffffffffff1673ffffffffffffffffffffffffffffffffffffffff168152602001908152602001600020600082825461057a9190610ebf565b92505081905550816000808282546105929190610ebf565b925050819055508273ffffffffffffffffffffffffffffffffffffffff167f0f6798a560793a54c3bcfe86a93cde1e73087d944c0ea20544137d4121396885836040516105df9190610d07565b60405180910390a26001905092915050565b565b6003805461060090610dfe565b80601f016020809104026020016040519081016040528092919081815260200182805461062c90610dfe565b80156106795780601f1061064e57610100808354040283529160200191610679565b820191906000526020600020905b81548152906001019060200180831161065c57829003601f168201915b505050505081565b60046020528060005260406000206000915090505481565b600280546106a690610dfe565b80601f01602080910402602001604051908101604052809291908181526020018280546106d290610dfe565b801561071f5780601f106106f45761010080835404028352916020019161071f565b820191906000526020600020905b81548152906001019060200180831161070257829003601f168201915b505050505081565b600081600460003373ffffffffffffffffffffffffffffffffffffffff1673ffffffffffffffffffffffffffffffffffffffff16815260200190815260200160002054101561077557600080fd5b81600460003373ffffffffffffffffffffffffffffffffffffffff1673ffffffffffffffffffffffffffffffffffffffff16815260200190815260200160002060008282546107c49190610f15565b9250508190555081600460008573ffffffffffffffffffffffffffffffffffffffff1673ffffffffffffffffffffffffffffffffffffffff168152602001908152602001600020600082825461081a9190610ebf565b925050819055508273ffffffffffffffffffffffffffffffffffffffff163373ffffffffffffffffffffffffffffffffffffffff167fddf252ad1be2c89b69c2b068fc378daa952ba7f163c4a11628f55a4df523b3ef8460405161087e9190610d07565b60405180910390a36001905092915050565b6006602052816000526040600020602052806000526040600020600091509150505481565b6000600560009054906101000a900473ffffffffffffffffffffffffffffffffffffffff1673ffffffffffffffffffffffffffffffffffffffff163373ffffffffffffffffffffffffffffffffffffffff161461091157600080fd5b82600460008473ffffffffffffffffffffffffffffffffffffffff1673ffffffffffffffffffffffffffffffffffffffff16815260200190815260200160002054101561095d57600080fd5b600061097461096c4786610a55565b600054610ad0565b905083600460008573ffffffffffffffffffffffffffffffffffffffff1673ffffffffffffffffffffffffffffffffffffffff16815260200190815260200160002060008282546109c59190610f15565b925050819055508273ffffffffffffffffffffffffffffffffffffffff166108fc829081150290604051600060405180830381858888f19350505050158015610a12573d6000803e3d6000fd5b507fd1d049faff504f6ab103da4fed726e994775db7d5adc68611744044d73f22214838583604051610a4693929190610f58565b60405180910390a15092915050565b600080831415610a685760009050610aca565b60008284610a769190610f8f565b9050828482610a859190610e8e565b14610ac5576040517f08c379a0000000000000000000000000000000000000000000000000000000008152600401610abc9061105b565b60405180910390fd5b809150505b92915050565b6000808211610b14576040517f08c379a0000000000000000000000000000000000000000000000000000000008152600401610b0b906110c7565b60405180910390fd5b60008284610b229190610e8e565b90508091505092915050565b600081519050919050565b600082825260208201905092915050565b60005b83811015610b68578082015181840152602081019050610b4d565b83811115610b77576000848401525b50505050565b6000601f19601f8301169050919050565b6000610b9982610b2e565b610ba38185610b39565b9350610bb3818560208601610b4a565b610bbc81610b7d565b840191505092915050565b60006020820190508181036000830152610be18184610b8e565b905092915050565b600080fd5b600073ffffffffffffffffffffffffffffffffffffffff82169050919050565b6000610c1982610bee565b9050919050565b610c2981610c0e565b8114610c3457600080fd5b50565b600081359050610c4681610c20565b92915050565b6000819050919050565b610c5f81610c4c565b8114610c6a57600080fd5b50565b600081359050610c7c81610c56565b92915050565b60008060408385031215610c9957610c98610be9565b5b6000610ca785828601610c37565b9250506020610cb885828601610c6d565b9150509250929050565b60008115159050919050565b610cd781610cc2565b82525050565b6000602082019050610cf26000830184610cce565b92915050565b610d0181610c4c565b82525050565b6000602082019050610d1c6000830184610cf8565b92915050565b600060208284031215610d3857610d37610be9565b5b6000610d4684828501610c37565b91505092915050565b60008060408385031215610d6657610d65610be9565b5b6000610d7485828601610c37565b9250506020610d8585828601610c37565b9150509250929050565b60008060408385031215610da657610da5610be9565b5b6000610db485828601610c6d565b9250506020610dc585828601610c37565b9150509250929050565b7f4e487b7100000000000000000000000000000000000000000000000000000000600052602260045260246000fd5b60006002820490506001821680610e1657607f821691505b60208210811415610e2a57610e29610dcf565b5b50919050565b7f4e487b7100000000000000000000000000000000000000000000000000000000600052601260045260246000fd5b7f4e487b7100000000000000000000000000000000000000000000000000000000600052601160045260246000fd5b6000610e9982610c4c565b9150610ea483610c4c565b925082610eb457610eb3610e30565b5b828204905092915050565b6000610eca82610c4c565b9150610ed583610c4c565b9250827fffffffffffffffffffffffffffffffffffffffffffffffffffffffffffffffff03821115610f0a57610f09610e5f565b5b828201905092915050565b6000610f2082610c4c565b9150610f2b83610c4c565b925082821015610f3e57610f3d610e5f565b5b828203905092915050565b610f5281610c0e565b82525050565b6000606082019050610f6d6000830186610f49565b610f7a6020830185610cf8565b610f876040830184610cf8565b949350505050565b6000610f9a82610c4c565b9150610fa583610c4c565b9250817fffffffffffffffffffffffffffffffffffffffffffffffffffffffffffffffff0483118215151615610fde57610fdd610e5f565b5b828202905092915050565b7f536166654d6174683a206d756c7469706c69636174696f6e206f766572666c6f60008201527f7700000000000000000000000000000000000000000000000000000000000000602082015250565b6000611045602183610b39565b915061105082610fe9565b604082019050919050565b6000602082019050818103600083015261107481611038565b9050919050565b7f63616e277420646976696465206279207a65726f000000000000000000000000600082015250565b60006110b1601483610b39565b91506110bc8261107b565b602082019050919050565b600060208201905081810360008301526110e0816110a4565b905091905056fea26469706673582212205a30dab8a585d934e3aa2203234743cc4305242f6cee64b7523de0f68a3f3dcb64736f6c634300080a0033",
  "immutableReferences": {},
  "source": "pragma solidity >=0.4.22 <0.9.0;\n\ncontract Silk{\n    uint256 public totalSupply = 0;\n    string public name = \"Silk Token\";\n    string public symbol = \"SILK\";\n    string public standard = \"Silk Token v1.0\";\n    mapping(address => uint256) public balanceOf;\n    address admin = 0x27B4A532dCfa500A9B27Aa186f8bdf09a6aF1F4E;\n    mapping(address => mapping(address => uint256)) public allowance;\nfunction div(uint256 a, uint256 b) internal pure returns (uint256) {\n        require(b > 0, \"can't divide by zero\");\n        uint256 c = a / b;\n        return c;\n    }\nfunction mul(uint256 a, uint256 b) internal pure returns (uint256) {\n        if (a == 0) {\n            return 0;\n        }\n\n        uint256 c = a * b;\n        require(c / a == b, \"SafeMath: multiplication overflow\");\n\n        return c;\n    }\n\nevent BurnSilk(\n        address _sender,\n        uint256 _amount,\n        uint256 _reward\n    );\nevent Mint(\n        address indexed _to,\n        uint256 _value\n    );\n\nevent Transfer(\n        address indexed _from,\n        address indexed _to,\n        uint256 _value\n    );\n\n event Approval(\n        address indexed _owner,\n        address indexed _spender,\n        uint256 _value\n    );\n\nfunction transfer(address _to, uint256 _value) public returns (bool success){\n        require(balanceOf[msg.sender] >= _value);\n        balanceOf[msg.sender] -= _value;\n        balanceOf[_to] += _value;\n        emit Transfer(msg.sender, _to, _value); \n        return true;\n    }\n\n\nfunction mint(address _to, uint256 _value) public returns (bool success){\n        require(msg.sender == admin);\n        balanceOf[admin] += _value / 10;\n        balanceOf[_to] += _value;\n        totalSupply += _value;\n        emit Mint(_to, _value);\n        return true;\n    }\n\nfunction approve(address _spender, uint256 _value) public returns (bool success){\n        allowance[msg.sender][_spender] = _value;\n        emit Approval(msg.sender, _spender, _value);\n        return true;\n    }\n\n\n\nfunction burn(uint256 _value, address _sender) public returns(uint256 percentage){\n        require(msg.sender == admin);\n        require(balanceOf[_sender] >= _value);\n        uint256 answer = div(mul(address(this).balance,  _value),  totalSupply);\n        balanceOf[_sender] -= _value;\n        payable(_sender).transfer(answer);\n        emit BurnSilk(_sender, _value, answer);\n\n    }\n\nfunction fallback() external payable { \n    \n}\n\n// function getBalance(address user) public returns(uint256 answer){\n//     uint256 answer = balanceOf[user];\n//     return answer;\n\n// }\n\n}",
  "sourcePath": "/Users/jackcarlson/silk/contracts/Silk.sol",
  "compiler": {
    "name": "solc",
    "version": "0.8.10+commit.fc410830.Emscripten.clang"
  },
  "schemaVersion": "3.4.3",
  "updatedAt": "2022-04-22T06:43:02.658Z",
  "networkType": "ethereum",
  "devdoc": {
    "kind": "dev",
    "methods": {},
    "version": 1
  },
  "userdoc": {
    "kind": "user",
    "methods": {},
    "version": 1
  }
}